{"abi":[{"type":"function","name":"feedbackCount","inputs":[{"name":"subject","type":"address","internalType":"address"}],"outputs":[{"name":"count","type":"uint256","internalType":"uint256"}],"stateMutability":"view"},{"type":"function","name":"getFeedbackCount","inputs":[{"name":"subject","type":"address","internalType":"address"}],"outputs":[{"name":"","type":"uint256","internalType":"uint256"}],"stateMutability":"view"},{"type":"function","name":"getScore","inputs":[{"name":"subject","type":"address","internalType":"address"}],"outputs":[{"name":"","type":"int256","internalType":"int256"}],"stateMutability":"view"},{"type":"function","name":"postFeedback","inputs":[{"name":"subject","type":"address","internalType":"address"},{"name":"score","type":"int256","internalType":"int256"},{"name":"metadata","type":"string","internalType":"string"}],"outputs":[],"stateMutability":"nonpayable"},{"type":"function","name":"scoreOf","inputs":[{"name":"subject","type":"address","internalType":"address"}],"outputs":[{"name":"score","type":"int256","internalType":"int256"}],"stateMutability":"view"},{"type":"event","name":"FeedbackPosted","inputs":[{"name":"subject","type":"address","indexed":true,"internalType":"address"},{"name":"score","type":"int256","indexed":false,"internalType":"int256"},{"name":"metadata","type":"string","indexed":false,"internalType":"string"}],"anonymous":false}],"bytecode":{"object":"0x6080604052348015600e575f5ffd5b506106328061001c5f395ff3fe608060405234801561000f575f5ffd5b5060043610610055575f3560e01c806301ff73e714610059578063133af456146100895780637a2c6192146100b9578063d47875d0146100d5578063da1b3fe214610105575b5f5ffd5b610073600480360381019061006e9190610348565b610135565b604051610080919061038b565b60405180910390f35b6100a3600480360381019061009e9190610348565b61017b565b6040516100b091906103bc565b60405180910390f35b6100d360048036038101906100ce9190610460565b61018f565b005b6100ef60048036038101906100ea9190610348565b61028c565b6040516100fc91906103bc565b60405180910390f35b61011f600480360381019061011a9190610348565b6102d1565b60405161012c919061038b565b60405180910390f35b5f60015f8373ffffffffffffffffffffffffffffffffffffffff1673ffffffffffffffffffffffffffffffffffffffff1681526020019081526020015f20549050919050565b5f602052805f5260405f205f915090505481565b825f5f8673ffffffffffffffffffffffffffffffffffffffff1673ffffffffffffffffffffffffffffffffffffffff1681526020019081526020015f205f8282546101da91906104fe565b925050819055506001805f8673ffffffffffffffffffffffffffffffffffffffff1673ffffffffffffffffffffffffffffffffffffffff1681526020019081526020015f205f82825461022d919061053f565b925050819055508373ffffffffffffffffffffffffffffffffffffffff167f7897779b0df676c6b2f9fd60a204142f90c9a9e69afcc6e3bb924045c5a2d4a684848460405161027e939291906105cc565b60405180910390a250505050565b5f5f5f8373ffffffffffffffffffffffffffffffffffffffff1673ffffffffffffffffffffffffffffffffffffffff1681526020019081526020015f20549050919050565b6001602052805f5260405f205f915090505481565b5f5ffd5b5f5ffd5b5f73ffffffffffffffffffffffffffffffffffffffff82169050919050565b5f610317826102ee565b9050919050565b6103278161030d565b8114610331575f5ffd5b50565b5f813590506103428161031e565b92915050565b5f6020828403121561035d5761035c6102e6565b5b5f61036a84828501610334565b91505092915050565b5f819050919050565b61038581610373565b82525050565b5f60208201905061039e5f83018461037c565b92915050565b5f819050919050565b6103b6816103a4565b82525050565b5f6020820190506103cf5f8301846103ad565b92915050565b6103de816103a4565b81146103e8575f5ffd5b50565b5f813590506103f9816103d5565b92915050565b5f5ffd5b5f5ffd5b5f5ffd5b5f5f83601f8401126104205761041f6103ff565b5b8235905067ffffffffffffffff81111561043d5761043c610403565b5b60208301915083600182028301111561045957610458610407565b5b9250929050565b5f5f5f5f60608587031215610478576104776102e6565b5b5f61048587828801610334565b9450506020610496878288016103eb565b935050604085013567ffffffffffffffff8111156104b7576104b66102ea565b5b6104c38782880161040b565b925092505092959194509250565b7f4e487b71000000000000000000000000000000000000000000000000000000005f52601160045260245ffd5b5f610508826103a4565b9150610513836103a4565b92508282019050828112155f8312168382125f841215161715610539576105386104d1565b5b92915050565b5f61054982610373565b915061055483610373565b925082820190508082111561056c5761056b6104d1565b5b92915050565b5f82825260208201905092915050565b828183375f83830152505050565b5f601f19601f8301169050919050565b5f6105ab8385610572565b93506105b8838584610582565b6105c183610590565b840190509392505050565b5f6040820190506105df5f8301866103ad565b81810360208301526105f28184866105a0565b905094935050505056fea26469706673582212203f5a00ce0ef511a8c2b7762a8fa5c13434321e3ff0f79643b27846c708f2a95064736f6c63430008230033","linkReferences":{}},"methodIdentifiers":{"feedbackCount(address)":"da1b3fe2","getFeedbackCount(address)":"01ff73e7","getScore(address)":"d47875d0","postFeedback(address,int256,string)":"7a2c6192","scoreOf(address)":"133af456"},"id":0}